{"abi":[{"type":"constructor","inputs":[{"name":"_finder","type":"address","internalType":"address"},{"name":"_bundler","type":"address","internalType":"address"},{"name":"_collateral","type":"address","internalType":"address"},{"name":"_bondAmount","type":"uint256","internalType":"uint256"},{"name":"_rules","type":"string","internalType":"string"},{"name":"_identifier","type":"bytes32","internalType":"bytes32"},{"name":"_liveness","type":"uint64","internalType":"uint64"}],"stateMutability":"nonpayable"},{"type":"function","name":"EXPLANATION_KEY","inputs":[],"outputs":[{"name":"","type":"bytes","internalType":"bytes"}],"stateMutability":"view"},{"type":"function","name":"PROPOSAL_HASH_KEY","inputs":[],"outputs":[{"name":"","type":"bytes","internalType":"bytes"}],"stateMutability":"view"},{"type":"function","name":"RULES_KEY","inputs":[],"outputs":[{"name":"","type":"bytes","internalType":"bytes"}],"stateMutability":"view"},{"type":"function","name":"addBundler","inputs":[{"name":"_bundler","type":"address","internalType":"address"}],"outputs":[],"stateMutability":"nonpayable"},{"type":"function","name":"assertionDisputedCallback","inputs":[{"name":"assertionId","type":"bytes32","internalType":"bytes32"}],"outputs":[],"stateMutability":"nonpayable"},{"type":"function","name":"assertionIds","inputs":[{"name":"","type":"bytes32","internalType":"bytes32"}],"outputs":[{"name":"","type":"bytes32","internalType":"bytes32"}],"stateMutability":"view"},{"type":"function","name":"assertionResolvedCallback","inputs":[{"name":"assertionId","type":"bytes32","internalType":"bytes32"},{"name":"assertedTruthfully","type":"bool","internalType":"bool"}],"outputs":[],"stateMutability":"nonpayable"},{"type":"function","name":"assertions","inputs":[{"name":"","type":"bytes32","internalType":"bytes32"}],"outputs":[{"name":"","type":"uint256","internalType":"uint256"}],"stateMutability":"view"},{"type":"function","name":"bondAmount","inputs":[],"outputs":[{"name":"","type":"uint256","internalType":"uint256"}],"stateMutability":"view"},{"type":"function","name":"bundlers","inputs":[{"name":"","type":"address","internalType":"address"}],"outputs":[{"name":"","type":"bool","internalType":"bool"}],"stateMutability":"view"},{"type":"function","name":"bundles","inputs":[{"name":"","type":"uint256","internalType":"uint256"}],"outputs":[{"name":"","type":"string","internalType":"string"}],"stateMutability":"view"},{"type":"function","name":"cancelBundle","inputs":[{"name":"_bundleTimestamp","type":"uint256","internalType":"uint256"}],"outputs":[],"stateMutability":"nonpayable"},{"type":"function","name":"collateral","inputs":[],"outputs":[{"name":"","type":"address","internalType":"contract IERC20"}],"stateMutability":"view"},{"type":"function","name":"deleteProposalOnUpgrade","inputs":[{"name":"proposalHash","type":"bytes32","internalType":"bytes32"}],"outputs":[],"stateMutability":"nonpayable"},{"type":"function","name":"escalationManager","inputs":[],"outputs":[{"name":"","type":"address","internalType":"address"}],"stateMutability":"view"},{"type":"function","name":"finder","inputs":[],"outputs":[{"name":"","type":"address","internalType":"contract FinderInterface"}],"stateMutability":"view"},{"type":"function","name":"getCurrentTime","inputs":[],"outputs":[{"name":"","type":"uint256","internalType":"uint256"}],"stateMutability":"view"},{"type":"function","name":"getProposalBond","inputs":[],"outputs":[{"name":"","type":"uint256","internalType":"uint256"}],"stateMutability":"view"},{"type":"function","name":"identifier","inputs":[],"outputs":[{"name":"","type":"bytes32","internalType":"bytes32"}],"stateMutability":"view"},{"type":"function","name":"lastFinalizedBundle","inputs":[],"outputs":[{"name":"","type":"uint256","internalType":"uint256"}],"stateMutability":"view"},{"type":"function","name":"liveness","inputs":[],"outputs":[{"name":"","type":"uint64","internalType":"uint64"}],"stateMutability":"view"},{"type":"function","name":"optimisticOracleV3","inputs":[],"outputs":[{"name":"","type":"address","internalType":"contract OptimisticOracleV3Interface"}],"stateMutability":"view"},{"type":"function","name":"owner","inputs":[],"outputs":[{"name":"","type":"address","internalType":"address"}],"stateMutability":"view"},{"type":"function","name":"proposalHashes","inputs":[{"name":"","type":"bytes32","internalType":"bytes32"}],"outputs":[{"name":"","type":"bytes32","internalType":"bytes32"}],"stateMutability":"view"},{"type":"function","name":"proposeBundle","inputs":[{"name":"_bundleData","type":"string","internalType":"string"}],"outputs":[],"stateMutability":"nonpayable"},{"type":"function","name":"proposeTransactions","inputs":[{"name":"transactions","type":"tuple[]","internalType":"struct OptimisticProposer.Transaction[]","components":[{"name":"to","type":"address","internalType":"address"},{"name":"operation","type":"uint8","internalType":"enum Enum.Operation"},{"name":"value","type":"uint256","internalType":"uint256"},{"name":"data","type":"bytes","internalType":"bytes"}]},{"name":"explanation","type":"bytes","internalType":"bytes"}],"outputs":[],"stateMutability":"nonpayable"},{"type":"function","name":"removeBundler","inputs":[{"name":"_bundler","type":"address","internalType":"address"}],"outputs":[],"stateMutability":"nonpayable"},{"type":"function","name":"renounceOwnership","inputs":[],"outputs":[],"stateMutability":"nonpayable"},{"type":"function","name":"rules","inputs":[],"outputs":[{"name":"","type":"string","internalType":"string"}],"stateMutability":"view"},{"type":"function","name":"setCollateralAndBond","inputs":[{"name":"_collateral","type":"address","internalType":"contract IERC20"},{"name":"_bondAmount","type":"uint256","internalType":"uint256"}],"outputs":[],"stateMutability":"nonpayable"},{"type":"function","name":"setEscalationManager","inputs":[{"name":"_escalationManager","type":"address","internalType":"address"}],"outputs":[],"stateMutability":"nonpayable"},{"type":"function","name":"setIdentifier","inputs":[{"name":"_identifier","type":"bytes32","internalType":"bytes32"}],"outputs":[],"stateMutability":"nonpayable"},{"type":"function","name":"setLiveness","inputs":[{"name":"_liveness","type":"uint64","internalType":"uint64"}],"outputs":[],"stateMutability":"nonpayable"},{"type":"function","name":"setRules","inputs":[{"name":"_rules","type":"string","internalType":"string"}],"outputs":[],"stateMutability":"nonpayable"},{"type":"function","name":"setUp","inputs":[{"name":"initializeParams","type":"bytes","internalType":"bytes"}],"outputs":[],"stateMutability":"nonpayable"},{"type":"function","name":"sync","inputs":[],"outputs":[],"stateMutability":"nonpayable"},{"type":"function","name":"transferOwnership","inputs":[{"name":"newOwner","type":"address","internalType":"address"}],"outputs":[],"stateMutability":"nonpayable"},{"type":"event","name":"BundleCanceled","inputs":[{"name":"timestamp","type":"uint256","indexed":true,"internalType":"uint256"}],"anonymous":false},{"type":"event","name":"BundleProposed","inputs":[{"name":"timestamp","type":"uint256","indexed":true,"internalType":"uint256"},{"name":"bundleData","type":"string","indexed":false,"internalType":"string"}],"anonymous":false},{"type":"event","name":"BundleTrackerDeployed","inputs":[{"name":"bundler","type":"address","indexed":true,"internalType":"address"},{"name":"rules","type":"string","indexed":false,"internalType":"string"}],"anonymous":false},{"type":"event","name":"BundlerAdded","inputs":[{"name":"bundler","type":"address","indexed":true,"internalType":"address"}],"anonymous":false},{"type":"event","name":"BundlerRemoved","inputs":[{"name":"bundler","type":"address","indexed":true,"internalType":"address"}],"anonymous":false},{"type":"event","name":"Initialized","inputs":[{"name":"version","type":"uint8","indexed":false,"internalType":"uint8"}],"anonymous":false},{"type":"event","name":"OptimisticOracleChanged","inputs":[{"name":"newOptimisticOracleV3","type":"address","indexed":true,"internalType":"address"}],"anonymous":false},{"type":"event","name":"OwnershipTransferred","inputs":[{"name":"previousOwner","type":"address","indexed":true,"internalType":"address"},{"name":"newOwner","type":"address","indexed":true,"internalType":"address"}],"anonymous":false},{"type":"event","name":"ProposalDeleted","inputs":[{"name":"proposalHash","type":"bytes32","indexed":true,"internalType":"bytes32"},{"name":"assertionId","type":"bytes32","indexed":true,"internalType":"bytes32"}],"anonymous":false},{"type":"event","name":"ProposalExecuted","inputs":[{"name":"proposalHash","type":"bytes32","indexed":true,"internalType":"bytes32"},{"name":"assertionId","type":"bytes32","indexed":true,"internalType":"bytes32"}],"anonymous":false},{"type":"event","name":"SetBookkeeper","inputs":[{"name":"bookkeeper","type":"address","indexed":true,"internalType":"address"}],"anonymous":false},{"type":"event","name":"SetCollateralAndBond","inputs":[{"name":"collateral","type":"address","indexed":true,"internalType":"contract IERC20"},{"name":"bondAmount","type":"uint256","indexed":true,"internalType":"uint256"}],"anonymous":false},{"type":"event","name":"SetEscalationManager","inputs":[{"name":"escalationManager","type":"address","indexed":true,"internalType":"address"}],"anonymous":false},{"type":"event","name":"SetIdentifier","inputs":[{"name":"identifier","type":"bytes32","indexed":true,"internalType":"bytes32"}],"anonymous":false},{"type":"event","name":"SetLiveness","inputs":[{"name":"liveness","type":"uint64","indexed":true,"internalType":"uint64"}],"anonymous":false},{"type":"event","name":"SetRules","inputs":[{"name":"rules","type":"string","indexed":false,"internalType":"string"}],"anonymous":false},{"type":"event","name":"TransactionExecuted","inputs":[{"name":"proposalHash","type":"bytes32","indexed":true,"internalType":"bytes32"},{"name":"assertionId","type":"bytes32","indexed":true,"internalType":"bytes32"},{"name":"transactionIndex","type":"uint256","indexed":true,"internalType":"uint256"}],"anonymous":false},{"type":"event","name":"TransactionsProposed","inputs":[{"name":"proposer","type":"address","indexed":true,"internalType":"address"},{"name":"proposalTime","type":"uint256","indexed":true,"internalType":"uint256"},{"name":"assertionId","type":"bytes32","indexed":true,"internalType":"bytes32"},{"name":"proposal","type":"tuple","indexed":false,"internalType":"struct OptimisticProposer.Proposal","components":[{"name":"transactions","type":"tuple[]","internalType":"struct OptimisticProposer.Transaction[]","components":[{"name":"to","type":"address","internalType":"address"},{"name":"operation","type":"uint8","internalType":"enum Enum.Operation"},{"name":"value","type":"uint256","internalType":"uint256"},{"name":"data","type":"bytes","internalType":"bytes"}]},{"name":"requestTime","type":"uint256","internalType":"uint256"}]},{"name":"proposalHash","type":"bytes32","indexed":false,"internalType":"bytes32"},{"name":"explanation","type":"bytes","indexed":false,"internalType":"bytes"},{"name":"rules","type":"string","indexed":false,"internalType":"string"},{"name":"challengeWindowEnds","type":"uint256","indexed":false,"internalType":"uint256"}],"anonymous":false}],"bytecode":{"object":"0x60806040523480156200001157600080fd5b5060405162003cd838038062003cd8833981016040819052620000349162000bcb565b6000805460ff191660011790556001600160a01b0387166200009d5760405162461bcd60e51b815260206004820152601f60248201527f46696e64657220616464726573732063616e206e6f7420626520656d7074790060448201526064015b60405180910390fd5b606580546001600160a01b0319166001600160a01b038916179055604051600090620000d89088908890889088908890889060200162000ca0565b60408051601f198184030181529190529050620000f58162000103565b505050505050505062000f43565b60005462010000900460ff1615808015620001295750600054600161010090910460ff16105b806200015f575062000146306200031160201b620016761760201c565b1580156200015f575060005460ff610100909104166001145b620001c45760405162461bcd60e51b815260206004820152602e60248201527f496e697469616c697a61626c653a20636f6e747261637420697320616c72656160448201526d191e481a5b9a5d1a585b1a5e995960921b606482015260840162000094565b6000805461ff0019166101001790558015620001ec576000805462ff00001916620100001790555b620001ff6000805460ff19166001179055565b6200020962000320565b6000806000806000808780602001905181019062000228919062000cf8565b95509550955095509550955062000245866200038960201b60201c565b620002518585620003df565b6200025c836200050e565b6200026782620005b6565b6200027281620006bd565b6200027c620007e4565b856001600160a01b03167f61dc934674c349cc8aba9af336b7431e81d9f11c73f77727b61f5ae001a57be184604051620002b7919062000d88565b60405180910390a250505050505080156200030d576000805462ff000019169055604051600181527f7f26b83ff96e1f2b6a682f133852f6798a09c465da95921460cefb38474024989060200160405180910390a15b5050565b6001600160a01b03163b151590565b60005462010000900460ff166200037d5760405162461bcd60e51b815260206004820152602b602482015260008051602062003cb883398151915260448201526a6e697469616c697a696e6760a81b606482015260840162000094565b62000387620008cd565b565b6200039362000935565b6001600160a01b038116600081815260716020526040808220805460ff19166001179055517f0c64dd4cf45e6662b704cbd91ab2dc4c8e9fe31ccaa92774384605c04b1483f09190a250565b620003e962000935565b6000620003f562000991565b604051631d1d5b3960e11b81526001600160a01b038581166004830152919250600091831690633a3ab67290602401602060405180830381865afa15801562000442573d6000803e3d6000fd5b505050506040513d601f19601f8201168201806040525081019062000468919062000da4565b905080620004b95760405162461bcd60e51b815260206004820152601860248201527f426f6e6420746f6b656e206e6f7420737570706f727465640000000000000000604482015260640162000094565b606680546001600160a01b0319166001600160a01b03861690811790915560678490556040518491907f2a66a814c4ddef1225e35d7068b3458f2c2dc2a212288bdc1963b5007bdb2cd190600090a350505050565b6200051862000935565b60008151116200056b5760405162461bcd60e51b815260206004820152601660248201527f52756c65732063616e206e6f7420626520656d70747900000000000000000000604482015260640162000094565b606862000579828262000e57565b507fd126aed3fefb9793c6164dec52a0cd8fed9bd9a8867f4d7b41dbd6c7134ebf3081604051620005ab919062000d88565b60405180910390a150565b620005c062000935565b620005ca62000a27565b6001600160a01b03166390978d1b826040518263ffffffff1660e01b8152600401620005f891815260200190565b602060405180830381865afa15801562000616573d6000803e3d6000fd5b505050506040513d601f19601f820116820180604052508101906200063c919062000da4565b6200068a5760405162461bcd60e51b815260206004820152601860248201527f4964656e746966696572206e6f7420737570706f727465640000000000000000604482015260640162000094565b606981905560405181907ff35b61cf27d8ae21648935573dbd9eefad145ebc7dfe806273e3f93d9896ab9c90600090a250565b620006c762000935565b6000816001600160401b031611620007225760405162461bcd60e51b815260206004820152601360248201527f4c6976656e6573732063616e2774206265203000000000000000000000000000604482015260640162000094565b63bb744800816001600160401b0316106200078e5760405162461bcd60e51b815260206004820152602560248201527f4c6976656e657373206d757374206265206c657373207468616e2035323030206044820152647765656b7360d81b606482015260840162000094565b60658054600160a01b600160e01b031916600160a01b6001600160401b038416908102919091179091556040517f0ccc3b904401a4ffd81153f4acf19daaa09629a146f2642dc4785ff2d243d3aa90600090a250565b6065546040516302abf57960e61b8152714f7074696d69737469634f7261636c65563360701b60048201526000916001600160a01b03169063aafd5e4090602401602060405180830381865afa15801562000843573d6000803e3d6000fd5b505050506040513d601f19601f8201168201806040525081019062000869919062000f23565b606b549091506001600160a01b03808316911614620008ca57606b80546001600160a01b0319166001600160a01b0383169081179091556040517f31103d28ed1d18b7a077591828239e8047e75f9af1c1389abb0faa5fbb78bcbe90600090a25b50565b60005462010000900460ff166200092a5760405162461bcd60e51b815260206004820152602b602482015260008051602062003cb883398151915260448201526a6e697469616c697a696e6760a81b606482015260840162000094565b620003873362000a79565b6033546001600160a01b03163314620003875760405162461bcd60e51b815260206004820181905260248201527f4f776e61626c653a2063616c6c6572206973206e6f7420746865206f776e6572604482015260640162000094565b6065546040516302abf57960e61b81527f436f6c6c61746572616c57686974656c6973740000000000000000000000000060048201526000916001600160a01b03169063aafd5e40906024015b602060405180830381865afa158015620009fc573d6000803e3d6000fd5b505050506040513d601f19601f8201168201806040525081019062000a22919062000f23565b905090565b6065546040516302abf57960e61b81527f4964656e74696669657257686974656c6973740000000000000000000000000060048201526000916001600160a01b03169063aafd5e4090602401620009de565b603380546001600160a01b038381166001600160a01b0319831681179093556040519116919082907f8be0079c531659141344cd1fd0a4f28419497f9722a3daafe3b4186f6b6457e090600090a35050565b6001600160a01b0381168114620008ca57600080fd5b634e487b7160e01b600052604160045260246000fd5b60005b8381101562000b1457818101518382015260200162000afa565b50506000910152565b600082601f83011262000b2f57600080fd5b81516001600160401b038082111562000b4c5762000b4c62000ae1565b604051601f8301601f19908116603f0116810190828211818310171562000b775762000b7762000ae1565b8160405283815286602085880101111562000b9157600080fd5b62000ba484602083016020890162000af7565b9695505050505050565b80516001600160401b038116811462000bc657600080fd5b919050565b600080600080600080600060e0888a03121562000be757600080fd5b875162000bf48162000acb565b602089015190975062000c078162000acb565b604089015190965062000c1a8162000acb565b606089015160808a015191965094506001600160401b0381111562000c3e57600080fd5b62000c4c8a828b0162000b1d565b93505060a0880151915062000c6460c0890162000bae565b905092959891949750929550565b6000815180845262000c8c81602086016020860162000af7565b601f01601f19169290920160200192915050565b6001600160a01b038781168252861660208201526040810185905260c06060820181905260009062000cd59083018662000c72565b6080830194909452506001600160401b039190911660a090910152949350505050565b60008060008060008060c0878903121562000d1257600080fd5b865162000d1f8162000acb565b602088015190965062000d328162000acb565b6040880151606089015191965094506001600160401b0381111562000d5657600080fd5b62000d6489828a0162000b1d565b9350506080870151915062000d7c60a0880162000bae565b90509295509295509295565b60208152600062000d9d602083018462000c72565b9392505050565b60006020828403121562000db757600080fd5b8151801515811462000d9d57600080fd5b600181811c9082168062000ddd57607f821691505b60208210810362000dfe57634e487b7160e01b600052602260045260246000fd5b50919050565b601f82111562000e5257600081815260208120601f850160051c8101602086101562000e2d5750805b601f850160051c820191505b8181101562000e4e5782815560010162000e39565b5050505b505050565b81516001600160401b0381111562000e735762000e7362000ae1565b62000e8b8162000e84845462000dc8565b8462000e04565b602080601f83116001811462000ec3576000841562000eaa5750858301515b600019600386901b1c1916600185901b17855562000e4e565b600085815260208120601f198616915b8281101562000ef45788860151825594840194600190910190840162000ed3565b508582101562000f135787850151600019600388901b60f8161c191681555b5050505050600190811b01905550565b60006020828403121562000f3657600080fd5b815162000d9d8162000acb565b612d658062000f536000396000f3fe608060405234801561001057600080fd5b50600436106102265760003560e01c80638da5cb5b11610130578063ce531ff1116100b8578063e20dac001161007c578063e20dac0014610505578063f1b156b214610518578063f2fde38b1461052b578063f913f33a1461053e578063fff6cae91461056957600080fd5b8063ce531ff114610499578063cf19384b146104ac578063d448a4ec146104bf578063d60715b5146104d2578063d8dfeb45146104f257600080fd5b8063b9a3c84c116100ff578063b9a3c84c1461043a578063c5b029891461044d578063c6adc75914610460578063ca22b65a14610473578063ce0d8d201461048657600080fd5b80638da5cb5b146103d95780639cd5b115146103ea578063a4f9edbf14610414578063ae054fdc1461042757600080fd5b80635ad02cab116101b3578063715018a611610182578063715018a61461037957806375e0fc39146103815780637998a1c41461039457806380f323a71461039d578063896bfc96146103a657600080fd5b80635ad02cab146102fa5780635d1ec0971461031e5780635da08758146103275780636ad0690a1461034757600080fd5b80632618f0c6116101fa5780632618f0c61461029957806329cb924d146102ac5780633c4432f1146102b257806350564e19146102c557806352f6747a146102e557600080fd5b8062c992061461022b5780631b61cd2214610240578063226beb191461025b57806325db64c014610286575b600080fd5b61023e610239366004612089565b610571565b005b610248610673565b6040519081526020015b60405180910390f35b606b5461026e906001600160a01b031681565b6040516001600160a01b039091168152602001610252565b61023e6102943660046120b7565b610702565b61023e6102a73660046121d1565b610753565b42610248565b61023e6102c036600461222e565b61087a565b6102486102d3366004612089565b606d6020526000908152604090205481565b6102ed610992565b604051610252919061229b565b6102ed6040518060400160405280600581526020016472756c657360d81b81525081565b610248606e5481565b610248610335366004612089565b606c6020526000908152604090205481565b60655461036190600160a01b90046001600160401b031681565b6040516001600160401b039091168152602001610252565b61023e610a20565b61023e61038f3660046122ae565b610a34565b61024860695481565b61024860675481565b6103c96103b43660046120b7565b60716020526000908152604090205460ff1681565b6040519015158152602001610252565b6033546001600160a01b031661026e565b6102ed6040518060400160405280600b81526020016a32bc383630b730ba34b7b760a91b81525081565b61023e6104223660046122fa565b610b5a565b61023e610435366004612089565b610d34565b60655461026e906001600160a01b031681565b606a5461026e906001600160a01b031681565b61023e61046e366004612089565b610f16565b61023e6104813660046120b7565b610f86565b61023e6104943660046121d1565b61103a565b61023e6104a73660046120b7565b6110d3565b6102ed6104ba366004612089565b611127565b61023e6104cd366004612089565b611140565b6102486104e0366004612089565b60706020526000908152604090205481565b60665461026e906001600160a01b031681565b61023e61051336600461232e565b6111fe565b61023e61052636600461248a565b61159d565b61023e6105393660046120b7565b6115cf565b6102ed6040518060400160405280600c81526020016b0e0e4dee0dee6c2d890c2e6d60a31b81525081565b61023e611645565b610579611685565b6105816116df565b6001600160a01b03166390978d1b826040518263ffffffff1660e01b81526004016105ae91815260200190565b602060405180830381865afa1580156105cb573d6000803e3d6000fd5b505050506040513d601f19601f820116820180604052508101906105ef91906124ca565b6106405760405162461bcd60e51b815260206004820152601860248201527f4964656e746966696572206e6f7420737570706f72746564000000000000000060448201526064015b60405180910390fd5b606981905560405181907ff35b61cf27d8ae21648935573dbd9eefad145ebc7dfe806273e3f93d9896ab9c90600090a250565b606b54606654604051634360af3d60e01b81526001600160a01b03918216600482015260009283921690634360af3d90602401602060405180830381865afa1580156106c3573d6000803e3d6000fd5b505050506040513d601f19601f820116820180604052508101906106e791906124e7565b905060675481116106fa576067546106fc565b805b91505090565b61070a611685565b6001600160a01b038116600081815260716020526040808220805460ff19169055517fb08b79e928d8424dd9cace0a25124bced6309d6ee589d2ef4d35e9c8efaf631a9190a250565b3360009081526071602052604090205460ff166107ac5760405162461bcd60e51b815260206004820152601760248201527621b0b63632b91034b9903737ba103090313ab7323632b960491b6044820152606401610637565b426000908152606f602052604090206107c58282612588565b50606b54606554606654606754606954604051636457c97960e01b81526000956001600160a01b0390811695636457c97995610822958a95339530958c95600160a01b90046001600160401b031694169291908590600401612647565b6020604051808303816000875af1158015610841573d6000803e3d6000fd5b505050506040513d601f19601f8201168201806040525081019061086591906124e7565b60009081526070602052604090204290555050565b610882611685565b6000816001600160401b0316116108d15760405162461bcd60e51b815260206004820152601360248201527204c6976656e6573732063616e2774206265203606c1b6044820152606401610637565b63bb744800816001600160401b03161061093b5760405162461bcd60e51b815260206004820152602560248201527f4c6976656e657373206d757374206265206c657373207468616e2035323030206044820152647765656b7360d81b6064820152608401610637565b6065805467ffffffffffffffff60a01b1916600160a01b6001600160401b038416908102919091179091556040517f0ccc3b904401a4ffd81153f4acf19daaa09629a146f2642dc4785ff2d243d3aa90600090a250565b6068805461099f90612500565b80601f01602080910402602001604051908101604052809291908181526020018280546109cb90612500565b8015610a185780601f106109ed57610100808354040283529160200191610a18565b820191906000526020600020905b8154815290600101906020018083116109fb57829003601f168201915b505050505081565b610a28611685565b610a326000611768565b565b610a3c611685565b6000610a466117ba565b604051631d1d5b3960e11b81526001600160a01b038581166004830152919250600091831690633a3ab67290602401602060405180830381865afa158015610a92573d6000803e3d6000fd5b505050506040513d601f19601f82011682018060405250810190610ab691906124ca565b905080610b055760405162461bcd60e51b815260206004820152601860248201527f426f6e6420746f6b656e206e6f7420737570706f7274656400000000000000006044820152606401610637565b606680546001600160a01b0319166001600160a01b03861690811790915560678490556040518491907f2a66a814c4ddef1225e35d7068b3458f2c2dc2a212288bdc1963b5007bdb2cd190600090a350505050565b60005462010000900460ff1615808015610b7f5750600054600161010090910460ff16105b80610b9f5750303b158015610b9f575060005460ff610100909104166001145b610c025760405162461bcd60e51b815260206004820152602e60248201527f496e697469616c697a61626c653a20636f6e747261637420697320616c72656160448201526d191e481a5b9a5d1a585b1a5e995960921b6064820152608401610637565b6000805461ff0019166101001790558015610c29576000805462ff00001916620100001790555b610c3b6000805460ff19166001179055565b610c43611801565b60008060008060008087806020019051810190610c6091906126bf565b955095509550955095509550610c75866110d3565b610c7f8585610a34565b610c888361103a565b610c9182610571565b610c9a8161087a565b610ca2611831565b856001600160a01b03167f61dc934674c349cc8aba9af336b7431e81d9f11c73f77727b61f5ae001a57be184604051610cdb919061229b565b60405180910390a25050505050508015610d30576000805462ff000019169055604051600181527f7f26b83ff96e1f2b6a682f133852f6798a09c465da95921460cefb38474024989060200160405180910390a15b5050565b610d3c611915565b610d4b6000805460ff19169055565b80610d905760405162461bcd60e51b8152602060048201526015602482015274092dcecc2d8d2c840e0e4dee0dee6c2d840d0c2e6d605b1b6044820152606401610637565b6000818152606c602052604090205480610dec5760405162461bcd60e51b815260206004820152601c60248201527f50726f706f73616c206861736820646f6573206e6f74206578697374000000006044820152606401610637565b606b5460405163220c0a2160e21b8152600481018390526000916001600160a01b03169063883028849060240161020060405180830381865afa158015610e37573d6000803e3d6000fd5b505050506040513d601f19601f82011682018060405250810190610e5b9190612829565b602001516001600160a01b031614610eb55760405162461bcd60e51b815260206004820152601960248201527f4f4f76332075706772616465206e6f74206465746563746564000000000000006044820152606401610637565b6000828152606c60209081526040808320839055838352606d90915280822082905551829184917f5edbbf8fde9a20c0b179352d836e1b966c991ff50d04bb4c014ef9eaac3d75cd9190a350610f136000805460ff19166001179055565b50565b3360009081526071602052604090205460ff16610f6f5760405162461bcd60e51b815260206004820152601760248201527621b0b63632b91034b9903737ba103090313ab7323632b960491b6044820152606401610637565b6000818152606f60205260408120610f139161203b565b610f8e611685565b6001600160a01b0381163b151580610fad57506001600160a01b038116155b610ff05760405162461bcd60e51b81526020600482015260146024820152731153481a5cc81b9bdd08184818dbdb9d1c9858dd60621b6044820152606401610637565b606a80546001600160a01b0319166001600160a01b0383169081179091556040517fe0bfd64da71d0b48c43fc899463d98150863aec223fad28e3584ab986d06f67090600090a250565b611042611685565b600081511161108c5760405162461bcd60e51b815260206004820152601660248201527552756c65732063616e206e6f7420626520656d70747960501b6044820152606401610637565b60686110988282612588565b507fd126aed3fefb9793c6164dec52a0cd8fed9bd9a8867f4d7b41dbd6c7134ebf30816040516110c8919061229b565b60405180910390a150565b6110db611685565b6001600160a01b038116600081815260716020526040808220805460ff19166001179055517f0c64dd4cf45e6662b704cbd91ab2dc4c8e9fe31ccaa92774384605c04b1483f09190a250565b606f602052600090815260409020805461099f90612500565b6000818152606d6020526040902054606b546001600160a01b031633036111f557806111a65760405162461bcd60e51b8152602060048201526015602482015274092dcecc2d8d2c840e0e4dee0dee6c2d840d0c2e6d605b1b6044820152606401610637565b6000818152606c60209081526040808320839055848352606d90915280822082905551839183917f5edbbf8fde9a20c0b179352d836e1b966c991ff50d04bb4c014ef9eaac3d75cd9190a35050565b610d3081610d34565b611206611915565b6112156000805460ff19169055565b6040805180820190915260608152426020820181905290339060005b855181101561136e5760006001600160a01b031686828151811061125757611257612909565b6020026020010151600001516001600160a01b0316036112b95760405162461bcd60e51b815260206004820152601e60248201527f5468652060746f6020616464726573732063616e6e6f742062652030783000006044820152606401610637565b60008682815181106112cd576112cd612909565b60200260200101516060015151111561135c576113108682815181106112f5576112f5612909565b6020026020010151600001516001600160a01b03163b151590565b61135c5760405162461bcd60e51b815260206004820152601d60248201527f454f412063616e277420616363657074207478207769746820646174610000006044820152606401610637565b8061136681612935565b915050611231565b508481526040516000906113869087906020016129f4565b60405160208183030381529060405280519060200120905060006113aa8287611967565b6000838152606c6020526040902054909150156114095760405162461bcd60e51b815260206004820152601f60248201527f4475706c69636174652070726f706f73616c73206e6f7420616c6c6f776564006044820152606401610637565b6000611413610673565b60665490915061142e906001600160a01b0316863084611a18565b606b5460665461144b916001600160a01b03918216911683611a89565b606b54606a54606554606654606954604051636457c97960e01b81526000956001600160a01b0390811695636457c979956114ad958b958f95309594851694600160a01b9094046001600160401b031693909216918c91908c90600401612647565b6020604051808303816000875af11580156114cc573d6000803e3d6000fd5b505050506040513d601f19601f820116820180604052508101906114f091906124e7565b6000858152606c60209081526040808320849055838352606d9091529020859055606554909150819088906001600160a01b038916907f3100c6fe4fcf9f84fa7552fac0148f6481fa5a5c79da76d0460fa5cd7852566d90899089908e9060689061156b90600160a01b90046001600160401b031688612a07565b60405161157c959493929190612a1a565b60405180910390a450505050505050610d306000805460ff19166001179055565b606b546001600160a01b031633146115b457600080fd5b8015610d305750600090815260706020526040902054606e55565b6115d7611685565b6001600160a01b03811661163c5760405162461bcd60e51b815260206004820152602660248201527f4f776e61626c653a206e6577206f776e657220697320746865207a65726f206160448201526564647265737360d01b6064820152608401610637565b610f1381611768565b61164d611915565b61165c6000805460ff19169055565b611664611831565b610a326000805460ff19166001179055565b6001600160a01b03163b151590565b6033546001600160a01b03163314610a325760405162461bcd60e51b815260206004820181905260248201527f4f776e61626c653a2063616c6c6572206973206e6f7420746865206f776e65726044820152606401610637565b6065546040516302abf57960e61b8152721259195b9d1a599a595c95da1a5d195b1a5cdd606a1b60048201526000916001600160a01b03169063aafd5e40906024015b602060405180830381865afa15801561173f573d6000803e3d6000fd5b505050506040513d601f19601f820116820180604052508101906117639190612aee565b905090565b603380546001600160a01b038381166001600160a01b0319831681179093556040519116919082907f8be0079c531659141344cd1fd0a4f28419497f9722a3daafe3b4186f6b6457e090600090a35050565b6065546040516302abf57960e61b81527210dbdb1b185d195c985b15da1a5d195b1a5cdd606a1b60048201526000916001600160a01b03169063aafd5e4090602401611722565b60005462010000900460ff166118295760405162461bcd60e51b815260040161063790612b0b565b610a32611b36565b6065546040516302abf57960e61b8152714f7074696d69737469634f7261636c65563360701b60048201526000916001600160a01b03169063aafd5e4090602401602060405180830381865afa15801561188f573d6000803e3d6000fd5b505050506040513d601f19601f820116820180604052508101906118b39190612aee565b606b549091506001600160a01b03808316911614610f1357606b80546001600160a01b0319166001600160a01b0383169081179091556040517f31103d28ed1d18b7a077591828239e8047e75f9af1c1389abb0faa5fbb78bcbe90600090a250565b60005460ff16610a325760405162461bcd60e51b815260206004820152601f60248201527f5265656e7472616e637947756172643a207265656e7472616e742063616c6c006044820152606401610637565b60606119a7604051806020016040528060008152506040518060400160405280600c81526020016b0e0e4dee0dee6c2d890c2e6d60a31b81525085611b67565b6040518060400160405280600b81526020016a32bc383630b730ba34b7b760a91b815250836040518060400160405280600581526020016472756c657360d81b8152506068604051602001611a00959493929190612b56565b60405160208183030381529060405290505b92915050565b6040516001600160a01b0380851660248301528316604482015260648101829052611a839085906323b872dd60e01b906084015b60408051601f198184030181529190526020810180516001600160e01b03166001600160e01b031990931692909217909152611bad565b50505050565b604051636eb1769f60e11b81523060048201526001600160a01b0383811660248301526000919085169063dd62ed3e90604401602060405180830381865afa158015611ad9573d6000803e3d6000fd5b505050506040513d601f19601f82011682018060405250810190611afd91906124e7565b9050611a838463095ea7b360e01b85611b168686612a07565b6040516001600160a01b0390921660248301526044820152606401611a4c565b60005462010000900460ff16611b5e5760405162461bcd60e51b815260040161063790612b0b565b610a3233611768565b60606000611b758585611c87565b90508481611b8285611cc9565b604051602001611b9493929190612c61565b6040516020818303038152906040529150509392505050565b6000611c02826040518060400160405280602081526020017f5361666545524332303a206c6f772d6c6576656c2063616c6c206661696c6564815250856001600160a01b0316611d099092919063ffffffff16565b9050805160001480611c23575080806020019051810190611c2391906124ca565b611c825760405162461bcd60e51b815260206004820152602a60248201527f5361666545524332303a204552433230206f7065726174696f6e20646964206e6044820152691bdd081cdd58d8d9595960b21b6064820152608401610637565b505050565b815160609015611cb85781604051602001611ca29190612ca4565b6040516020818303038152906040529050611a12565b81604051602001611ca29190612cd8565b6060611cd8608083901c611d20565b611ce183611d20565b6040805160208101939093528201526060016040516020818303038152906040529050919050565b6060611d188484600085611ec2565b949350505050565b6000808260001c9050806fffffffffffffffffffffffffffffffff169050806801000000000000000002811777ffffffffffffffff0000000000000000ffffffffffffffff169050806401000000000281177bffffffff00000000ffffffff00000000ffffffff00000000ffffffff16905080620100000281177dffff0000ffff0000ffff0000ffff0000ffff0000ffff0000ffff0000ffff169050806101000281177eff00ff00ff00ff00ff00ff00ff00ff00ff00ff00ff00ff00ff00ff00ff00ff1690508060100281177f0f0f0f0f0f0f0f0f0f0f0f0f0f0f0f0f0f0f0f0f0f0f0f0f0f0f0f0f0f0f0f0f16905060006008827f08080808080808080808080808080808080808080808080808080808080808081681611e4457611e44612cfd565b0460047f040404040404040404040404040404040404040404040404040404040404040484160460027f020202020202020202020202020202020202020202020202020202020202020285160417166027029091017f3030303030303030303030303030303030303030303030303030303030303030019392505050565b606082471015611f235760405162461bcd60e51b815260206004820152602660248201527f416464726573733a20696e73756666696369656e742062616c616e636520666f6044820152651c8818d85b1b60d21b6064820152608401610637565b600080866001600160a01b03168587604051611f3f9190612d13565b60006040518083038185875af1925050503d8060008114611f7c576040519150601f19603f3d011682016040523d82523d6000602084013e611f81565b606091505b5091509150611f9287838387611f9d565b979650505050505050565b6060831561200c578251600003612005576001600160a01b0385163b6120055760405162461bcd60e51b815260206004820152601d60248201527f416464726573733a2063616c6c20746f206e6f6e2d636f6e74726163740000006044820152606401610637565b5081611d18565b611d1883838151156120215781518083602001fd5b8060405162461bcd60e51b8152600401610637919061229b565b50805461204790612500565b6000825580601f10612057575050565b601f016020900490600052602060002090810190610f1391905b808211156120855760008155600101612071565b5090565b60006020828403121561209b57600080fd5b5035919050565b6001600160a01b0381168114610f1357600080fd5b6000602082840312156120c957600080fd5b81356120d4816120a2565b9392505050565b634e487b7160e01b600052604160045260246000fd5b604051608081016001600160401b0381118282101715612113576121136120db565b60405290565b60405161018081016001600160401b0381118282101715612113576121136120db565b604051601f8201601f191681016001600160401b0381118282101715612164576121646120db565b604052919050565b60006001600160401b03821115612185576121856120db565b50601f01601f191660200190565b60006121a66121a18461216c565b61213c565b90508281528383830111156121ba57600080fd5b828260208301376000602084830101529392505050565b6000602082840312156121e357600080fd5b81356001600160401b038111156121f957600080fd5b8201601f8101841361220a57600080fd5b611d1884823560208401612193565b6001600160401b0381168114610f1357600080fd5b60006020828403121561224057600080fd5b81356120d481612219565b60005b8381101561226657818101518382015260200161224e565b50506000910152565b6000815180845261228781602086016020860161224b565b601f01601f19169290920160200192915050565b6020815260006120d4602083018461226f565b600080604083850312156122c157600080fd5b82356122cc816120a2565b946020939093013593505050565b600082601f8301126122eb57600080fd5b6120d483833560208501612193565b60006020828403121561230c57600080fd5b81356001600160401b0381111561232257600080fd5b611d18848285016122da565b6000806040838503121561234157600080fd5b82356001600160401b038082111561235857600080fd5b818501915085601f83011261236c57600080fd5b8135602082821115612380576123806120db565b8160051b61238f82820161213c565b928352848101820192828101908a8511156123a957600080fd5b83870192505b8483101561244e578235868111156123c75760008081fd5b87016080818d03601f19018113156123df5760008081fd5b6123e76120f1565b868301356123f4816120a2565b81526040830135600281106124095760008081fd5b81880152606083810135604083015291830135918983111561242b5760008081fd5b6124398f89858701016122da565b908201528452505091830191908301906123af565b975050508601359250508082111561246557600080fd5b50612472858286016122da565b9150509250929050565b8015158114610f1357600080fd5b6000806040838503121561249d57600080fd5b8235915060208301356124af8161247c565b809150509250929050565b80516124c58161247c565b919050565b6000602082840312156124dc57600080fd5b81516120d48161247c565b6000602082840312156124f957600080fd5b5051919050565b600181811c9082168061251457607f821691505b60208210810361253457634e487b7160e01b600052602260045260246000fd5b50919050565b601f821115611c8257600081815260208120601f850160051c810160208610156125615750805b601f850160051c820191505b818110156125805782815560010161256d565b505050505050565b81516001600160401b038111156125a1576125a16120db565b6125b5816125af8454612500565b8461253a565b602080601f8311600181146125ea57600084156125d25750858301515b600019600386901b1c1916600185901b178555612580565b600085815260208120601f198616915b82811015612619578886015182559484019460019091019084016125fa565b50858210156126375787850151600019600388901b60f8161c191681555b5050505050600190811b01905550565b600061012080835261265b8184018d61226f565b6001600160a01b039b8c166020850152998b166040840152505095881660608701526001600160401b039490941660808601529190951660a084015260c083019490945260e08201939093526101000191909152919050565b80516124c581612219565b60008060008060008060c087890312156126d857600080fd5b86516126e3816120a2565b60208801519096506126f4816120a2565b6040880151606089015191965094506001600160401b0381111561271757600080fd5b8701601f8101891361272857600080fd5b80516127366121a18261216c565b8181528a602083850101111561274b57600080fd5b61275c82602083016020860161224b565b8095505050506080870151915061277560a088016126b4565b90509295509295509295565b80516124c5816120a2565b600060a0828403121561279e57600080fd5b60405160a081018181106001600160401b03821117156127c0576127c06120db565b806040525080915082516127d38161247c565b815260208301516127e38161247c565b602082015260408301516127f68161247c565b60408201526060830151612809816120a2565b6060820152608083015161281c816120a2565b6080919091015292915050565b6000610200828403121561283c57600080fd5b612844612119565b61284e848461278c565b815261285c60a08401612781565b602082015261286d60c084016126b4565b604082015261287e60e084016124ba565b6060820152610100612891818501612781565b60808301526101206128a48186016126b4565b60a08401526101406128b78187016124ba565b60c08501526101608087015160e0860152610180870151848601526101a0870151838601526128e96101c08801612781565b828601526128fa6101e08801612781565b90850152509195945050505050565b634e487b7160e01b600052603260045260246000fd5b634e487b7160e01b600052601160045260246000fd5b6000600182016129475761294761291f565b5060010190565b600081518084526020808501808196508360051b810191508286016000805b868110156129e6578385038a52825180516001600160a01b0316865286810151608090600281106129ac57634e487b7160e01b85526021600452602485fd5b87890152604082810151908801526060918201519187018190526129d28188018361226f565b9b88019b965050509185019160010161296d565b509298975050505050505050565b6020815260006120d4602083018461294e565b80820180821115611a1257611a1261291f565b60a0815260008651604060a0840152612a3660e084018261294e565b905060208089015160c085015287818501528382036040850152612a5a828861226f565b9150838203606085015260008654612a7181612500565b80855260018281168015612a8c5760018114612aa657612ad4565b60ff1984168787015282151560051b870186019450612ad4565b8a6000528560002060005b84811015612acc578154898201890152908301908701612ab1565b880187019550505b505050508093505050508260808301529695505050505050565b600060208284031215612b0057600080fd5b81516120d4816120a2565b6020808252602b908201527f496e697469616c697a61626c653a20636f6e7472616374206973206e6f74206960408201526a6e697469616c697a696e6760a81b606082015260800190565b600086516020612b698285838c0161224b565b8184019150600b60fa1b825260018851612b8881838601858d0161224b565b611d1160f11b93018181018490528851909390612bab8160038701868d0161224b565b61088b60f21b600395909101948501528751612bcd8160058701868c0161224b565b60059401938401528554600790600090612be681612500565b8185168015612bfc5760018114612c1557612c45565b60ff198316888601528115158202880185019350612c45565b8a6000528660002060005b83811015612c3b5781548a8201880152908701908801612c20565b5050848289010193505b5050601160f91b8252506001019b9a5050505050505050505050565b60008451612c7381846020890161224b565b845190830190612c8781836020890161224b565b8451910190612c9a81836020880161224b565b0195945050505050565b600b60fa1b815260008251612cc081600185016020870161224b565b601d60f91b6001939091019283015250600201919050565b60008251612cea81846020870161224b565b601d60f91b920191825250600101919050565b634e487b7160e01b600052601260045260246000fd5b60008251612d2581846020870161224b565b919091019291505056fea2646970667358221220c878601b6495fb481b1b5bf72d1bf9dae0e2cb9bfe136ff25fd992a32b3d2ff064736f6c63430008100033496e697469616c697a61626c653a20636f6e7472616374206973206e6f742069","linkReferences":{}},"methodIdentifiers":{"EXPLANATION_KEY()":"9cd5b115","PROPOSAL_HASH_KEY()":"f913f33a","RULES_KEY()":"5ad02cab","addBundler(address)":"ce531ff1","assertionDisputedCallback(bytes32)":"d448a4ec","assertionIds(bytes32)":"5da08758","assertionResolvedCallback(bytes32,bool)":"f1b156b2","assertions(bytes32)":"d60715b5","bondAmount()":"80f323a7","bundlers(address)":"896bfc96","bundles(uint256)":"cf19384b","cancelBundle(uint256)":"c6adc759","collateral()":"d8dfeb45","deleteProposalOnUpgrade(bytes32)":"ae054fdc","escalationManager()":"c5b02989","finder()":"b9a3c84c","getCurrentTime()":"29cb924d","getProposalBond()":"1b61cd22","identifier()":"7998a1c4","lastFinalizedBundle()":"5d1ec097","liveness()":"6ad0690a","optimisticOracleV3()":"226beb19","owner()":"8da5cb5b","proposalHashes(bytes32)":"50564e19","proposeBundle(string)":"2618f0c6","proposeTransactions((address,uint8,uint256,bytes)[],bytes)":"e20dac00","removeBundler(address)":"25db64c0","renounceOwnership()":"715018a6","rules()":"52f6747a","setCollateralAndBond(address,uint256)":"75e0fc39","setEscalationManager(address)":"ca22b65a","setIdentifier(bytes32)":"00c99206","setLiveness(uint64)":"3c4432f1","setRules(string)":"ce0d8d20","setUp(bytes)":"a4f9edbf","sync()":"fff6cae9","transferOwnership(address)":"f2fde38b"},"id":51}